S00C0000627063772E737265636C
S1130000C01000202D0A0000290A0000290A00005F
S113001000000000000000000000000000000000DC
S1130020000000000000000000000000290A000099
S11300300000000000000000290A0000290A000056
S1130040290A0000290A0000290A0000290A0000E0
S1130050290A0000290A0000290A0000290A0000D0
S1130060290A0000290A0000290A0000290A0000C0
S1130070290A00000000000000000000290A000016
S1130080290A0000290A0000290A0000290A0000A0
S1130090290A00000000000000000000290A0000F6
S11300A0290A0000290A0000290A0000290A000080
S11300B000000000290A000010B5064C2378002B2C
S11300C007D1054B002B02D0044800E000BF0123F8
S11300D0237010BD7400002000000000F817000019
S11300E0084B10B5002B03D00749084800E000BFB7
S11300F007480368002B00D110BD064B002BFBD032
S11301009847F9E70000000078000020F817000085
S1130110F8170000000000007047000030B5224AC4
S1130120136808210B431360204A214B5A80214A4B
S113013003235B421360204B4831585C0124204365
S1130140C0B258540131585C2043C0B258545320B3
S1130150195C2143C9B219543824195D44388143C8
S1130160022001431955185D0F210840202528431A
S1130170185539201C5C214029431954E021C90237
S113018099608021090359608021C90259610B4B90
S1130190136080239B025360D223137313680221DC
S11301A00B43136030BDC0462004004015400000DE
S11301B0000C0040000C0042004400410C003000E0
S11301C070B5114C8023DB0163608025ED00A561CF
S11301D0A5600E4B9847656100200D4B98470200BF
S11301E00023910F90008018594100184941094A91
S11301F0002380185941084A0023084EB047084B91
S11302009847A56170BDC046004400411D0100002F
S1130210C1080000571B0000581B0000A50C00007B
S11302200100002070B504000D008022D202214B91
S11302309A610020204B984702000023910F900000
S113024080185941001849411C4A0023801859411B
S11302501B4A00231B4EB0471B4B984760231C438B
S11302601A4B9C621A00137E9B07FCD5184B1B6823
S1130270164B9D621A00137E9B07FCD5144B1B681A
S113028000200D4B984702000023910F9000801826
S1130290594100184941094A002380185941084A24
S11302A00023084CA047084B98478022D202014BF8
S11302B05A6170BD00440041C1080000BFCF6A000C
S11302C0C0CF6A00A50C000001000020000C004211
S11302D0280C004270B504008022D202224B9A619D
S11302E00020224B984702000023910F90008018B1
S11302F05941001849411E4A0023801859411D4A9A
S113030000231D4DA8471D4B984740231C431C4BFD
S11303109C621A00137E5B07FCD51A4B1B680022F3
S1130320174B9A621A00137E5B07FCD500200F4B13
S1130330984702000023910F90008018594100183B
S113034049410B4A0023801859410A4A00230A4CA8
S1130350A0470A4B98478022D202034B5A61084BAC
S1130360986AC0B270BDC04600440041C108000094
S1130370BFCF6A00C0CF6A00A50C000001000020B6
S1130380000C0042280C004270B5254A1368202155
S11303900B431360234A244B5A80244C03235B42AF
S11303A02360234B57201A5C1C398A431A54562263
S11303B0995C01252943C9B299541A5C2A43D2B2E3
S11303C01A543B215A5C48388243022002435A544F
S11303D0585C0F220240202002435A548022D20348
S11303E09A60802212045A602268124B13432360DD
S11303F0C0239B02636000200F4EB047050000201D
S1130400B04702000D4BE818010C000400230C4D0A
S1130410A84780B2A081236802221343236070BDE1
S11304202004004017400000000C0040001400426B
S11304300044004104001040C108000000E0E3FF54
S1130440A50C0000034A137EDB07FCD580B2014BE8
S1130450188570470014004270B504000078002825
S113046007D00134034DA8470134631E18780028CF
S1130470F9D170BD450400000FB4F0B5D6464F461F
S11304804646C0B5A0B028AE08CE9A4600201C4B04
S11304909946984702000023910F90008018594113
S11304A000184941174C002500196941164B98461C
S11304B0164A0023C047164FB8471F9632005146CC
S11304C001A8144B984701A8134B98470020C8472C
S11304D002000023910F90008018594100184941EF
S11304E000196941094A0023C047B84720B01CBC21
S11304F090469946A246F0BC08BC04B01847C046D2
S1130500C1080000571B0000A50C0000581B000088
S113051001000020310F0000590400007047000062
S11305200C4B1B68002B06D1EFF31083002B07D074
S11305300022094B1A70074A13680133136070478D
S113054072B6BFF35F8F0022044B1A700132024B64
S11305501A70F0E790000020940000200C000020A6
S1130560084B1A68013A1A601B68002B09D1064B24
S11305701B78002B05D00122044B1A70BFF35F8F48
S113058062B6704790000020940000200C00002008
S113059010B5082803D880001C4B1B589F46002028
S11305A032E01B4B18692FE01A4B1B6A9B059B0F0B
S11305B01948D84028E0164B586925E0144B1B68AD
S11305C000209B0720D513491022CB681A42FCD087
S11305D00F4B1A6824231340042B01D00F4813E057
S11305E000200F4B98470A4B9B681B041B0C584375
S11305F00AE05023074AD35C00205B0704D5044B70
S1130600D86801E08020000210BDC04644170000F5
S1130610980000200008004000127A00006CDC0200
S1130620C509000070B50C490B6A047885784078D8
S11306300122104080014026B34303432A40D201E3
S113064080208343134303222240120203480340C1
S113065013430B6270BDC04600080040FFFCFFFF5F
S1130660082803D88000254B1B589F46172044E0D8
S1130670234A136A02210B43136200203DE0204AFF
S1130680936902210B439361002036E01C4A138ACC
S113069002210B43138200202FE0194A938A02217E
S11306A00B439382002028E016490B68022213436F
S11306B00B60134B9A8419000E32CB681A42FCD09B
S11306C0104A91680E4BD96252689A6200229A8449
S11306D019001032CB681A42FCD00A4B1B689BB23B
S11306E0074A9384002008E0054944228B5C0220D9
S11306F003438B54002000E000207047681700007B
S1130700000800409800002030B585B0C222D20015
S11307101A4B9A601A4A53681E218B435360012373
S11307206A4613700024174DE0B26946A8470134A5
S1130730252CF9D103A80024447001258570047088
S1130740114B98470620114B9847114B9847114B72
S11307501C725C729C72DC7201956B465C700623A1
S11307606A46137014725572694600200A4B984702
S113077000200A4B984705B030BDC0460008004031
S113078000400041A90900002506000061060000A0
S1130790A107000000040040C50700007D08000018
S11307A0064A936908210B4393610122044B1A7092
S11307B019000B781342FCD17047C0460004004076
S11307C0000C004070B5060004000D782D020543AE
S11307D04B78002B02D08023DB021D434B7A002B85
S11307E002D080231B031D434868012810D9431EEF
S11307F0184234D1022830D90223002201325B008E
S11308009842FBD812023243140080235B031D4339
S11308100B7A002B02D080239B031D43134A537889
S11308205BB2002BFBDB124B9847124B1E700F4A36
S113083053785BB2002BFBDB0C4B9C601A005378A3
S11308405BB2002BFBDB094A5368802149020B4051
S11308501D435560084B984770BD0022D2E704023F
S1130860344380239B021D43D2E7C046000C004062
S113087021050000080C00406105000010B50400CB
S11308800B4A53785BB2002BFBDB0A4B98470A4BAD
S11308901C70074A53785BB2002BFBDB044A516897
S11308A080235B020B435360044B984710BDC04642
S11308B0000C004021050000040C0040610500000C
S11308C070B504001A4A53785BB2002BFBDB194B5A
S11308D09847194B1C70164A53785BB2002BFBDB0C
S11308E0134E7068C004C00E144B98470500124B99
S11308F01C707668F602F60F114B1C700C4A537884
S11309005BB2002BFBDB0A4B9C682402240C0D4BCE
S11309109847002E07D1012C07D9210028000A4B43
S11309209847050001E00134E540280070BDC04649
S1130930000C004021050000040C0040910500005B
S1130940080C0040610500008D0B000010B5040088
S11309500F4B98470F4B1C700F4A53881B05180FF9
S113096053880E490B40538053880D490B405380E4
S113097011008022D2014B881342FCD106494A88D7
S113098003020648024013434B80064B984710BDB0
S113099021050000020C0040000C0040FFF0FFFFA6
S11309A0FFBFFFFF6105000010B50C78240204436B
S11309B0024B9847A4B2024B5C8010BD4D09000065
S11309C0000C004010B50400064B9847064B1C7001
S11309D0064B5C882405240F054B98472000054BE3
S11309E0984710BD21050000020C0040000C004097
S11309F061050000C10800007047000010B5054BF8
S1130A009847054B9847054B9847054B9847054B26
S1130A10984710BD090700001D050000F9090000F2
S1130A20F9090000F9090000FEE70000F8B52A4AB8
S1130A302A4B9A4211D01A00294B9A420DD2294AC4
S1130A4003339B1A9B0801339B000022234822494D
S1130A508C58845004329A42FAD1234A234B9A4246
S1130A600AD2D34321495B1803218B4304339B18D7
S1130A70002102C29342FCD11D4AFF211D4B8B432E
S1130A809360FD3990235B001B4AD1501B4AD378F5
S1130A900325AB4302242343D370D3780C27BB43F1
S1130AA008263343D370164B987B30229043202280
S1130AB010439873997BB943314399739A7BAA4342
S1130AC022439A730F4A536880210B4353600E4BA1
S1130AD098470E4B9847FEE7F817000000000020E7
S1130AE0740000200400002074000020C0000020D6
S1130AF000ED00E0000000000070004100500041E3
S1130B000048004100400041B90E0000350B0000D0
S1130B100300064A1268002A04D0044A1068C31865
S1130B20136070470249014A1160F6E7B0000020E3
S1130B30C010002010B50C4B98470C4B98470C4B39
S1130B4098470C4B40229A601A610B480B4B98470C
S1130B500B4B9847502101200A4B984701200A4B20
S1130B609847002010BDC046FD090000190100008F
S1130B7089030000004400418C1700007904000040
S1130B80C101000025020000D50200000022430834
S1130B908B4274D303098B425FD3030A8B4244D341
S1130BA0030B8B4228D3030C8B420DD3FF22090283
S1130BB012BA030C8B4202D31212090265D0030B42
S1130BC08B4219D300E0090AC30B8B4201D3CB0338
S1130BD0C01A5241830B8B4201D38B03C01A52417A
S1130BE0430B8B4201D34B03C01A5241030B8B427C
S1130BF001D30B03C01A5241C30A8B4201D3CB0267
S1130C00C01A5241830A8B4201D38B02C01A52414B
S1130C10430A8B4201D34B02C01A5241030A8B424E
S1130C2001D30B02C01A5241CDD2C3098B4201D366
S1130C30CB01C01A524183098B4201D38B01C01AE4
S1130C40524143098B4201D34B01C01A524103095B
S1130C508B4201D30B01C01A5241C3088B4201D30A
S1130C60CB00C01A524183088B4201D38B00C01AB7
S1130C70524143088B4201D34B00C01A5241411ADE
S1130C8000D20146524110467047FFE701B50020EB
S1130C9000F006F802BDC0460029F7D076E7704799
S1130CA07047C046002B11D1002A0FD1002900D172
S1130CB0002802D00021C943081C07B4024802A13D
S1130CC04018029003BDC046D9FFFFFF03B4684635
S1130CD001B5029800F006F8019B9E4602B00CBCD8
S1130CE07047C046F0B557464E464546DE46E0B529
S1130CF0040083B00D00924699468B422FD82CD025
S1130D004946504600F0AEF829000600200000F0E5
S1130D10A9F8331A9846203B9B4600D574E0534605
S1130D205A4693401F005346424693401E00AF422A
S1130D3029D826D05B46A41BBD41002B00DA79E0FC
S1130D40002200230092019301235A469340019309
S1130D50012342469340009319E08242D0D90022F5
S1130D600023009201930C9B002B01D01C605D605A
S1130D700098019903B03CBC90469946A246AB4604
S1130D80F0BDA342D6D9002200230092019343462A
S1130D90002BE8D0FB0772081A4346467B080EE096
S1130DA0AB4201D1A2420CD8A41A9D4101202419BE
S1130DB06D410021013E24184D41002E06D0AB4266
S1130DC0EED9013E24196D41002EF8D15B460098FE
S1130DD0019900196941002B22DB2B005A46D340AC
S1130DE02A004446E2401C005B461500002B2CDB25
S1130DF026009E40330026004746BE403200801A3B
S1130E00994100900191AEE7424620239B1A524635
S1130E10DA40414613004A468A4017001F4382E7DE
S1130E20424620239B1A2A0046469A402300F34058
S1130E301343D5E74246202300219B1A0022009148
S1130E4001920122DA40019282E7424620232600E1
S1130E509B1ADE402F00B446974066463B0033435E
S1130E60C9E7C04610B5002903D100F007F82030C7
S1130E7002E0081C00F002F810BDC0461C2101234A
S1130E801B04984201D3000C10391B0A984201D369
S1130E90000A08391B09984201D30009043902A247
S1130EA0105C40187047C0460403020201010101AE
S1130EB0000000000000000070B500260C4D0D4C31
S1130EC0641BA410A64209D1002600F081FC0A4D3F
S1130ED00A4C641BA410A64205D170BDB300EB58A4
S1130EE098470136EEE7B300EB5898470136F2E72E
S1130EF0DC170000DC170000DC170000E01700001E
S1130F0030B59BB00091049108496D46029105915A
S1130F10012182244942E981A4006946AC8100F0A0
S1130F2075F80023009A13701BB030BDFFFFFF7FDC
S1130F3010B513000A00010002480068FFF7E0FF43
S1130F4010BDC04610000020F0B58E6885B00700C3
S1130F500C00039201939E4239D890238A89DB00C6
S1130F601A4234D00325096923685B1A0293636922
S1130F7002985D43EB0F5D19019B6D1001331B1843
S1130F80AB4200D91D00530532D52900380000F0CA
S1130F9039FB061E09D10C233B6040230120A289A2
S1130FA040421343A38105B0F0BD029A216900F0C9
S1130FB0C4FAA389144A1A4080231343A381029BD1
S1130FC02661F61826606561019EED1AA560019BF5
S1130FD0B34200D21E0032000399206800F0B6FA32
S1130FE0A36800209B1BA36023689E192660DAE790
S1130FF02A00380000F064FB061EE0D121693800A5
S113100000F0B6FAC7E7C0467FFBFFFFF0B59FB01C
S1131010029005938B890F0016001B0611D50B69EE
S1131020002B0ED1402100F0EDFA38603861002821
S113103005D10C23029A013813601FB0F0BD402380
S11310407B61002306AD6B6120336B761033AB7686
S113105034002378002B47D1A31B04930DD0A31B8A
S1131060320039000298FFF76FFF431C00D1B5E04E
S11310706A69049B944663446B612378002B00D116
S1131080ACE00122002352426A6002A95432521891
S113109001342B60EB60AB601370AB65584E0522D6
S11310A02178300000F03EFA621C002820D1296823
S11310B0CB0604D5532302AE20309B1918700B07BE
S11310C004D553232B2002AE9B19187023782A2BA6
S11310D016D000200A21099B2278303A092A55D9D2
S11310E0002815D0099313E0252BB5D00134B0E7BF
S11310F00123801B8340296814000B432B60CDE738
S1131100059B181D1B680590002B39DB09931400FF
S113111023782E2B0BD16378621C2A2B3ED1059B9E
S113112002341A1D1B680592002B34DB0793354EDD
S113113021780322300000F0F5F9002806D040237E
S1131140801B83402A68013413432B6021780622D4
S11311502D48661C297600F0E5F9002846D02B4B73
S1131160002B2FD12968059B0722C90528D59B1878
S11311709343083305936B69039A9B186B6167E784
S11311805B42EB6002230B432B60C0E74B4301340B
S11311909B180120A0E701235B42C7E7002314004A
S11311A00A201A006B6021783039092903D9002BF1
S11311B0BDD00792BBE74243013452180123F2E742
S11311C00733D5E705AB00933A00114B2900029889
S11311D000E000BF0390039B0133CCD1BB890B9883
S11311E05B0600D429E70120404226E705AB0093C3
S11311F03A00074B2900029800F07AF8EAE7C04663
S11312009C170000A2170000A617000000000000B1
S1131210490F0000F7B5150001938A680B69009027
S11312200C00934200DA130022002B604332127840
S1131230002A01D001332B6023689B0602D52B685A
S113124002332B60062723681F4027D02300433333
S11312501B785A1E93412268920630D422000199C9
S113126043320098089EB047431C25D006232068CB
S11312702A68E16803400025042B03D18D1AEB434F
S1131280DB171D40A3682269934201DD9B1AED1808
S11312900027BD4220D1002010E00137E3682A680E
S11312A09B1A9F42D2DA2200012319320199009835
S11312B0089EB047431CF0D101204042FEBD3020BF
S11312C0E1184331087021005A1C45310978A218ED
S11312D0433202331170C1E7220001231A3201990B
S11312E00098089EB047431CE6D00137D1E70000C0
S11312F0F0B58BB006920A0043320793059004922E
S11313000A7E0C00109B6E2A00D18FE017D8632A46
S11313102CD008D8002A00D199E0582A54D02600AD
S11313204236327029E0642A01D0692AF7D1216853
S11313301A68080623D5111D1960156825E0732A5B
S113134000D188E008D86F2A29D0702AE7D120225A
S113135009680A43226003E0752A20D0782ADED186
S113136022007821453211706C4A30E00E001A6870
S11313704236111D196013683370012379E0490660
S1131380D9D5111D19600023D55E002D03DA2D2354
S1131390049A6D421370624B0A2703932FE020686E
S11313A01968050603D5081D18600D6805E0400698
S11313B0F9D50D68081D1860ADB2594B0827039381
S11313C06F2A18D00A2716E045310A70544A03924E
S11313D01A682168101D18601568080622D5CB0705
S11313E002D52023194321601027002D03D1202387
S11313F022689A4322602300002243331A706368F0
S1131400A360002B5CDB0422216891432160002D42
S113141058D1049E002B64D02600039B42361B78CF
S113142033705EE04806DAD5ADB2D8E709681A68C9
S1131430080605D5111D1960136862691A6006E073
S11314404906F7D5111D19601368A28A1A80002372
S1131450049E236154E01A68111D19601668002166
S11314606268300000F05EF8002801D0801B6060E4
S1131470636823610023049A137041E023693200F6
S113148006990598079DA847431C43D02368002567
S11314909B070FD4099BE06898423DDA18003BE0B3
S11314A022000123193206990598079EB047431C70
S11314B030D00135E368099A9B1A9D42F0DBE9E7D5
S11314C0002DA9D0049E28003900FFF7E5FB039BFB
S11314D0013E5B5C280033703900FFF757FB051EA3
S11314E0F1D1082F09D12368DB0706D56368226987
S11314F0934202DC3023013E3370049B9B1B236127
S1131500079B09AA00932100069B0598FFF782FE1A
S1131510431CB3D1012040420BB0F0BDBE17000004
S1131520AD170000C9B28218904201D10020704763
S113153003788B42FBD00130F6E7002310B59A42C2
S113154000D110BDCC5CC4540133F8E710B5884217
S113155002D98B18984208D300239A4207D0CC5C56
S1131560C4540133F9E78B5C8354013AFBD210BDB8
S113157070B50500002910D00C1F2368002B00DA79
S1131580E418280000F0D4F81D4A1368002B05D194
S113159063601460280000F0CCF870BDA34209D940
S11315A0216860188342F3D118685B684118216090
S11315B0EEE713005A68002A01D0A242F9D919684B
S11315C05818A0420BD12068091858181960824293
S11315D0E0D110685268411819605A60DAE7A042F5
S11315E002D90C232B60D5E721686018824203D10D
S11315F0106852684118216062605C60CAE7C046A6
S1131600B4000020032370B5CD1C9D4308350600AB
S11316100C2D1ED20C25A9421DD8300000F088F8EC
S1131620254A14682100002919D1244C2368002B71
S113163003D1300000F06AF820602900300000F087
S113164065F8431C2CD10C233000336000F071F892
S113165003E0002DDFDA0C233360002070BD0B683B
S11316605B1B1AD40B2B03D90B60CC18256003E049
S11316708C420ED163681360300000F05AF82000E9
S113168007220B30231D9043C31AE7D05A42E2507D
S1131690E4E74B6863600C00EEE70C004968C2E7BE
S11316A00323C41C9C43A042E0D0211A300000F064
S11316B02DF8431CDAD1C6E7B4000020B80000209E
S11316C0F8B507000D001600002905D11100FFF739
S11316D099FF04002000F8BD002A03D1FFF748FF5A
S11316E03400F7E700F026F82C008642F2D93100E6
S11316F03800FFF787FF041EECD029003200FFF703
S11317001CFF29003800FFF733FFE3E7002370B51F
S1131710064C050008002360FFF7FAF9431C03D1C7
S11317202368002B00D02B6070BDC046BC00002095
S1131730704770470B1F1B68181F002B01DA0B58EA
S1131740C0187047A20500009E0500009E05000019
S11317500406000004060000B6050000A805000009
S1131760BC050000F20500008C0600006C060000B9
S11317706C060000F80600007E0600009A060000D1
S113178070060000A8060000E806000048656C6CBE
S11317906F20576F726C642100000000232D302BE2
S11317A02000686C4C00656667454647003031325E
S11317B033343536373839414243444546003031B5
S11317C03233343536373839616263646566000014
S11317D0F8B5C046F8BC08BC9E467047E10000005E
S11317E0F8B5C046F8BC08BC9E467047B900000076
S10B17F0F4F4FF7F0100000086
S11317F8BFF35F8F01380028FAD170470100000059
S11318081400002000000000000000000000000098
S113181800000000000000000000000000000000BC
S113182800000000000000000000000000000000AC
S1131838000000000000000000000000000000009C
S1131848000000000000000000000000000000008C
S1131858000000000000000000000000000000007C
S10718680000000078
S9030A2DC5
